:040000000128FA2BAE
:1006DE00803021009E0008001B3021008C0012305B
:1006EE0023008C0020008C016A3021009900080044
:1006FE0073236F23832B9123BF237108FA00700895
:10070E00F90001307A02003003197902031C822BA2
:10071E00A423832B20000C158230F000DE30890BD1
:10072E00962BF00B962B20000C118230F000DE3051
:10073E00890B9F2BF00B9F2B080020000C1503300C
:10074E00F1008A30F0005630890BAB2BF00BAB2B3F
:10075E00F10BAB2B20000C110330F1008A30F000AE
:10076E005630890BB82BF00BB82BF10BB82B0800B9
:10077E00053021009D000330F2009830890BC52B07
:10078E00F20BC52B21009D149D18CB2B1C08F200DB
:10079E00F3017208F7007308F8001B08F200F3016A
:1007AE007208F5007308F600F4011C080319E12B1A
:1007BE00F401F40A7408F200F3017208F7007308EA
:1007CE00F8007708F300F2017208F7007308F800DA
:1007DE0075087707F7007608783DF8007808F1007D
:1007EE007708F0000800F501F601F701F801200086
:0207FE007F2B4F
:020000040001F9
:04000E00E4F9FFDE34
:00000001FF
